:020000040800F2
:10000000280C0020450100081D2700081F270008B4
:1000100023270008272700082B27000800000000DE
:100020000000000000000000000000002F27000872
:10003000312700080000000033270008352700089A
:100040005F0100085F0100085F0100085F01000810
:100050005F0100085F0100085F0100085F01000800
:100060005F0100085F0100085F0100085F010008F0
:100070005F0100085F0100085F0100085F010008E0
:100080005F0100085F0100085F0100085F010008D0
:100090005F0100085F0100085F0100085F010008C0
:1000A0005F0100083D2800085F0100085F010008AB
:1000B000D72800085F0100085F0100085F01000801
:1000C0005F0100085F0100085F0100085F01000890
:1000D0005F0100083D270008E92700089127000874
:1000E0005F0100085F0100085F0100085F01000870
:1000F0005F0100085F0100085F0100085F01000860
:100100005F0100085F0100085F0100085F0100084F
:100110005F0100085F0100085F0100085F0100083F
:100120005F0100085F0100085F0100085F0100082F
:10013000DFF80CD003F004FB00480047052300085B
:10014000280C00200648804706480047FEE7FEE7E7
:10015000FEE7FEE7FEE7FEE7FEE7FEE7FEE7FEE777
:1001600047020008310100080CB500200190009002
:100170006C48006840F480306A49086000BF6948F4
:10018000006800F4003000900198401C0190009835
:1001900018B90198B0F5A06FF1D16248006800F479
:1001A000003010B10120009001E000200090009884
:1001B000012843D15C48006840F010005A490860AB
:1001C0000846006820F0030008600846006840F018
:1001D0000200086053484068524948600846406839
:1001E00048600846406840F48060486008464068BF
:1001F00020F47C1048600846406840F4E8104860ED
:100200000846006840F08070086000BF45480068FC
:1002100000F000700028F9D04248406820F0030048
:10022000404948600846406840F00200486000BF0E
:100230003C48406800F00C000828F9D10CBD10B50E
:10024000FFF792FF10BD10B53648006840F001007E
:1002500034490860084640683449084031494860DC
:1002600008460068324908402E4908600846006880
:1002700020F4802008600846406820F4FE004860B2
:100280004FF41F008860FFF7DAFF4FF00060294944
:10029000086010BD10B5002100200022214B5B68D2
:1002A00003F00C0121B1042906D0082928D107E068
:1002B000214B224C236027E01F4B204C236023E07E
:1002C000184B5B6803F47010164B5B6803F48032C4
:1002D000022303EB904022B9194B4343174C236090
:1002E0000DE0104B5B6803F4003323B1144B434320
:1002F000124C236003E0104B4343104C236003E097
:100300000D4B0E4C236000BF00BF064B5B68C3F370
:1003100003130C4CE15C094B1B68CB40074C23607A
:1003200010BD000000100240002002400000FFF855
:10033000FFFFF6FE08ED00E000127A00000000204A
:1003400000093D000400002031490143314A116099
:10035000704770B5002100230F22C47804B32D4CE0
:10036000246804F4E064C4F5E064210AC1F10403E4
:10037000CA40447804FA03F1847814402143090107
:10038000254C0678A155047804F01F050124AC40E3
:1003900005786D11AD0005F1E025C5F8004109E0D3
:1003A000047804F01F050124AC401C4D067876113A
:1003B00045F8264070BD1A4A0A400243154B1B1FE0
:1003C0001A60704739B1134A121D12680243114B6B
:1003D0001B1D1A6006E00F4A121D126882430D4B66
:1003E0001B1D1A607047042808D14FF0E0210969ED
:1003F00041F004014FF0E022116107E04FF0E021ED
:10040000096921F004014FF0E022116170470000FA
:100410000000FA050CED00E000E400E080E100E0FF
:1004200080FFFF1F01460020FE4A106800F03800E0
:10043000084310607047FB49096821F00801F94A38
:10044000116011460968014311607047F549096858
:1004500021F01001F34A116011460968014311604F
:100460007047F148EF494860F04848607047EE48EF
:10047000EC494860ED4848607047EA48006940F040
:100480008000E84908617047E648006940F0800054
:10049000E449086170470420E249C96801F001019C
:1004A00009B101200EE0DF49C96801F0040109B17A
:1004B000022007E0DB49C96801F0100109B10320FF
:1004C00000E00420704700B502460423FFF7E3FF75
:1004D000034603E0FFF7DFFF0346521E012B01D165
:1004E000002AF7D102B90523184600BD30B50446ED
:1004F00004254FF43020FFF7E6FF0546042D17D101
:10050000C848006940F00200C649086108464461D5
:10051000006940F0400008614FF43020FFF7D3FF3E
:100520000546C048006941F6FD710840BD490861B3
:10053000284630BD10B504244FF43020FFF7C3FF28
:100540000446042C16D1B748006940F00400B549B0
:1005500008610846006940F0400008614FF430200F
:10056000FFF7B1FF0446AF48006941F6FB71084050
:10057000AC490861204610BD00B502460423FFF7D0
:100580008AFF034603E0FFF786FF0346521E012B56
:1005900001D1002AF7D102B90523184600BD10B5D4
:1005A00004244FF43020FFF7E7FF0446042C16D153
:1005B0009C48006940F004009A49086108460069B7
:1005C00040F0400008614FF43020FFF7D5FF0446AB
:1005D0009448006941F6FB71084092490861204641
:1005E00010BD00208F49C96901F0020109B1012045
:1005F00000E00020704730B5A5250424FFF7F1FF87
:1006000000B100254FF43020FFF75DFF0446042CB5
:100610003AD18548834988608448886008460069E3
:1006200040F0200008610846006940F04000086181
:100630004FF43020FFF747FF0446042C1BD17948C4
:10064000006941F6DF710840764908610846006993
:1006500040F01000086176480580E002FFF733FFA4
:100660000446052C10D06F48006941F6EF71084030
:100670006C49086108E0052C06D06A48006941F61B
:10068000EF71084067490861204630BD78B50646DD
:100690000C46042500200090E802FFF714FF0546F1
:1006A000042D24D15F48006940F001005D490861D4
:1006B0003480E802FFF707FF0546042D10D1B01C77
:1006C0000090200C00990880E802FFF7FCFE054628
:1006D0005448006941F6FE7108405249086106E03D
:1006E0005048006941F6FE7108404E4908612846AD
:1006F00078BD70B504460D460426F002FFF7E3FE10
:100700000646042E11D14748006940F001004549D2
:1007100008612580F002FFF7D6FE064641480069D1
:1007200041F6FE7108403F490861304670BD70B522
:1007300005460E460424E002FFF7C5FE0446042CDD
:1007400017D13948374988603848886008460069B9
:1007500040F0100008612E80E002FFF7B4FE04466E
:10076000052C06D02F48006941F6EF7108402D494D
:100770000861204670BD2DE9F04304464FF6FF7630
:100780003746B046B1460425E443E6B2C4F3072732
:10079000C4F307484FEA1469E802FFF794FE0546E0
:1007A000042D49D120481F498860204888600846A8
:1007B000006940F010000861FF2E06D01C48083088
:1007C0000680E802FFF77FFE0546042D08D1FF2FC3
:1007D00006D017480A300780E802FFF774FE054686
:1007E000042D0AD1B8F1FF0F07D011480C30A0F842
:1007F0000080E802FFF767FE0546042D0AD1B9F133
:10080000FF0F07D00A480E30A0F80090E802FFF76B
:100810005AFE0546052D0FD00248006941F6EF71DA
:10082000084007E00020024023016745AB89EFCD77
:1008300000F8FF1F664908612846BDE8F08330B51F
:10084000054604244FF43020FFF73DFE0446042CF7
:1008500041D160485E4988605F4888600846006909
:1008600040F0200008610846006940F0400008613F
:100870004FF43020FFF727FE0446042C22D15448C1
:10088000006941F6DF710840514908610846006976
:1008900040F0100008611DB100205049088002E0BE
:1008A000A5204E4908804FF43020FFF70CFE044687
:1008B000052C10D04648006941F6EF7108404449C4
:1008C000086108E0052C06D04148006941F6DF7157
:1008D00008403F490861204630BDF0B505460E4648
:1008E000174604243B483A4988603B488860E00248
:1008F000FFF7E9FD0446042C19D13548006940F0A2
:1009000010003349086147F0F80030432843334969
:10091000891C0880E002FFF7D6FD0446052C06D0AE
:100920002B48006941F6EF710840294908612046CB
:10093000F0BD2748C069800870472548006A7047A5
:1009400000202349096801F0200109B1012000E0DD
:100950000020704729B11E4A126902431C4B1A61DC
:1009600004E01B4A12698243194B1A617047014621
:100970000020012908D1164AD26902F001020AB109
:10098000012008E0002006E0114AD2680A400AB1BE
:10099000012000E0002070470D49C8607047042026
:1009A0000B49C96801F0010109B101200EE00849B5
:1009B000C96801F0040109B1022007E00449C968CF
:1009C00001F0100109B1032000E00420704700008D
:1009D0000020024023016745AB89EFCD00F8FF1FDF
:1009E00010B50446CC48844208D10121042000F00F
:1009F0002DFB0021042000F029FB46E0C74884427B
:100A000008D10121082000F021FB0021082000F07E
:100A10001DFB3AE0C248844208D10121102000F0B9
:100A200015FB0021102000F011FB2EE0BD48844290
:100A300008D10121202000F009FB0021202000F036
:100A400005FB22E0B848844208D10121402000F093
:100A5000FDFA0021402000F0F9FA16E0B348844284
:100A600008D10121802000F0F1FA0021802000F05F
:100A7000EDFA0AE0AE48844207D10121801500F06A
:100A8000E5FA0021A01500F0E1FA10BD10B5012132
:100A9000084600F0DBFA0021012000F0D7FA10BD73
:100AA0002DE9F04102460025002600200023002405
:100AB000002791F803C00CF00F0591F803C00CF06B
:100AC000100CBCF1000F03D091F802C04CEA0505F0
:100AD00091F800C0BCF1000F31D0146800202BE069
:100AE0004FF0010C0CFA00F3B1F800C00CEA030659
:100AF0009E4220D183004FF00F0C0CFA03F7BC4349
:100B000005FA03FC4CEA040491F803C0BCF1280F79
:100B100006D14FF0010C0CFA00FCC2F814C00AE038
:100B200091F803C0BCF1480F05D14FF0010C0CFA4D
:100B300000FCC2F810C0401C0828D1D31460B1F8E2
:100B400000C0BCF1FF0F34DD546800202EE000F13E
:100B5000080C4FF0010808FA0CF3B1F800C00CEAD9
:100B600003069E4221D183004FF00F0C0CFA03F7CD
:100B7000BC4305FA03FC4CEA040491F803C0BCF141
:100B8000280F05D100F1080C08FA0CF8C2F81480FF
:100B900091F803C0BCF1480F07D100F1080C4FF0E9
:100BA000010808FA0CF8C2F81080401C0828CED3BF
:100BB0005460BDE8F0814FF6FF7101800221817021
:100BC0000421C17070470246002093680B400BB1AE
:100BD000012000E0002070470146886880B270471D
:100BE00002460020D3680B400BB1012000E000203A
:100BF00070470146C86880B2704701617047416123
:100C000070470AB1016100E041617047C1607047FF
:100C10004FF480320A438261816182618269826914
:100C2000704702460020434B18684FF68073184007
:100C300040EA021008433F4B186070473E49C861C4
:100C40007047F0B50A46002300240021002500F07B
:100C50000046B6F1004F02D1364EF16901E0354E43
:100C60007168C0F3034583B200F44016B6F5401F27
:100C700008D121F070612F4E766826F070662D4FF6
:100C80007E6012E000F48016B6F5801F06D10326C0
:100C900006FA05F4A14341F0706106E0460D360105
:100CA00003FA06F6B14341F0706122B1460D3601F8
:100CB00003FA06F6314300F00046B6F1004F02D1C8
:100CC0001C4EF16101E01B4E7160F0BD30B5002299
:100CD0008B071C0F0F2303FA04F2164B08338C10FA
:100CE00053F824309343134C08348D1044F82530C6
:100CF00023468C1053F824308C07240F00FA04F498
:100D000023430C4C08348D1044F8253030BD0A497B
:100D1000DC3108607047000000080140000C014011
:100D2000001001400014014000180140001C014067
:100D3000002001400000014000002042DF48006820
:100D400040F00100DD49086008464068DC49084081
:100D5000DA49486008460068DA490840D74908601F
:100D60000846006820F4802008600846406820F4A7
:100D7000FE0048604FF41F0088607047CF49096843
:100D800021F48031CD4A11601146096821F4802197
:100D90001160B0F5803F03D0B0F5802F0ED106E092
:100DA000C649096841F48031C44A116007E0C3496B
:100DB000096841F4A021C14A116000E000BF00BFF2
:100DC000704710B501460022002300204A11012A75
:100DD00002D1BA4C236806E0022A02D1B74C236A3A
:100DE00001E0B64C636A01F01F02012494401C40EC
:100DF0000CB1012000E0002010BD38B500200090AB
:100E00000024002500BF3120FFF7DBFF05460098D6
:100E1000401C00900098B0F5A06F01D0002DF2D0DA
:100E20003120FFF7CEFF08B1012400E00024204666
:100E300038BD01460020A14A106820F0F80040EAC1
:100E4000C10010607047A04908607047024600204A
:100E50009A4B586820F47C1042EA01031843974BE0
:100E60005860704798490866704701460020934AC9
:100E7000506820F003000843506070478F48406876
:100E800000F00C007047014600208C4A506820F0AA
:100E9000F00008435060704701460020874A5068C0
:100EA00020F4E06008435060704701460020834A08
:100EB000506820F4605040EAC1005060704729B18A
:100EC0007E4A527A02437D4B5A7204E07B4A527A40
:100ED00082437A4B5A7270477B49D8310860704719
:100EE00001460020754A506820F440400843506095
:100EF00070470021714A20321170704A82F8201028
:100F0000012802D004280AD104E001216B4A2032D2
:100F1000117005E00521694A2032117000E000BF20
:100F200000BF70476949086070476449096A014316
:100F3000624A11627047654944390860704730B5AC
:100F400000210022002400235C4D6D6805F00C0197
:100F500021B1042905D0082923D105E05C4D0560A5
:100F600022E05B4D05601FE0544D6D6805F4701282
:100F7000524D6D6805F48034022505EB92421CB990
:100F8000544D554305600BE04C4D6D6805F400353C
:100F90001DB1504D5543056002E04D4D5543056070
:100FA00002E04B4D056000BF00BF444D6D6805F089
:100FB000F0010909484D6B5C0568DD4045603F4D17
:100FC0006D6805F4E061090A434D6B5C4568DD40DE
:100FD00085603A4D6D6805F46051C90A3E4D6B5C01
:100FE0004568DD40C560354D6D6805F44041890BAD
:100FF0003A4D6B5CC568B5FBF3F5056130BD29B1B1
:101000002E4A526902432D4B5A6104E02B4A526921
:1010100082432A4B5A61704729B1284A9269024398
:10102000264B9A6104E0254A92698243234B9A61D8
:10103000704729B1214AD2690243204BDA6104E0AA
:101040001E4AD26982431D4BDA61704729B11B4A9F
:10105000D2680243194BDA6004E0184AD26882432E
:10106000164BDA60704729B1144A12690243134BD8
:101070001A6104E0114A12698243104B1A617047E9
:1010800012494039086070470F49C86470470B49DE
:10109000C87170470948406A40F08070074948624B
:1010A000704701460020054A92680A400AB10120B3
:1010B00000E000207047014988727047001002402C
:1010C0000000FFF8FFFFF6FE0000424280044242AB
:1010D00000127A0000093D001400002024000020C6
:1010E00010B50446FE48844208D10121C014FFF720
:1010F000ADFF0021E014FFF7A9FFC4E0B4F1804F79
:1011000008D101210846FFF7AEFF00210120FFF7BB
:10111000AAFFB8E0F348844208D101210220FFF77A
:10112000A2FF00210220FFF79EFFACE0EE488442C0
:1011300008D101210420FFF796FF00210420FFF7CA
:1011400092FFA0E0E948844208D101210820FFF77E
:101150008AFF00210820FFF786FF94E0E4488442DC
:1011600008D101211020FFF77EFF00211020FFF79A
:101170007AFF88E0DF48844208D101212020FFF770
:1011800072FF00212020FFF76EFF7CE0DA488442E6
:1011900008D101214014FFF759FF00216014FFF727
:1011A00055FF70E0D548844209D10121C804FFF7FA
:1011B0004DFF00214FF40020FFF748FF63E0D048C7
:1011C000844209D101210805FFF740FF00214FF4B7
:1011D0008010FFF73BFF56E0CA48844209D1012145
:1011E0004805FFF733FF00214FF40010FFF72EFFF3
:1011F00049E0C548844208D101214020FFF733FF70
:1012000000214020FFF72FFF3DE0C048844208D175
:1012100001218020FFF727FF00218020FFF723FF17
:1012200031E0BB48844208D101218015FFF71BFF44
:101230000021A015FFF717FF25E0B648844209D129
:1012400001210804FFF702FF00214FF48030FFF76F
:10125000FDFE18E0B048844209D101214804FFF79F
:10126000F5FE00214FF40030FFF7F0FE0BE0AB4835
:10127000844208D101218804FFF7E8FE00214FF4E1
:101280008020FFF7E3FE10BD00220288944B9842B5
:101290000ED0994B98420BD0B0F1804F08D0914BB3
:1012A000984205D0904B984202D0904B984204D17E
:1012B0004FF68F731A404B881A438D4B984207D0D4
:1012C0008C4B984204D04FF6FF431A40CB881A4308
:1012D00002808B8883850B880385814B98420BD0D5
:1012E000854B984208D08B4B984205D08A4B984248
:1012F00002D08A4B984201D10B7A03860123838264
:10130000704770B5002400220023058C4FF6FE764E
:1013100035400584028C8388048B4FF68F752C40F2
:10132000B51E2C400D882C43751E2A400D892A437A
:101330004D882A436A4DA8420BD06F4DA84208D071
:10134000744DA84205D0744DA84202D0734DA842F6
:1013500013D14FF6F7752A404D892A434FF6FB7596
:101360002A408D882A434FF6FF652B404FF6FF55E4
:101370002B408D892B43CD892B4383800483CD88DB
:101380008586028470BD70B5002400220023058C80
:101390004FF6EF7635400584028C8388048B48F63F
:1013A000FF752C404FF6FF452C400D884FF6FF7619
:1013B00006EA05252C434FF6DF752A400D8906EA1B
:1013C00005152A434D8806EA05152A43444DA842CF
:1013D00002D0494DA8421DD14FF67F752A404D8954
:1013E0004FF6FF7606EA05152A434FF6BF752A40E9
:1013F0008D8806EA05152A434FF6FF352B404FF23C
:10140000FF752B408D8906EA85052B43CD8906EAB9
:1014100085052B4383800483CD880587028470BDB6
:1014200070B5002400220023058C4FF6FF6635407E
:101430000584028C8388848B4FF68F752C404FF681
:10144000FC752C400D882C434FF6FF552A400D8922
:101450004FF6FF7606EA05252A434D8806EA05255C
:101460002A431F4DA84202D0234DA8421DD14FF25E
:10147000FF752A404D894FF6FF7606EA05252A4377
:101480004FF6FF352A408D8806EA05252A434EF699
:10149000FF752B404DF6FF752B408D8906EA05152B
:1014A0002B43CD8906EA05152B4383808483CD88A1
:1014B0008587028470BD70B5002200230024058C4E
:1014C0004EF6FF7635400584038C8488828B48F67F
:1014D000FF752A404FF6FF452A400D8820E00000A6
:1014E000002C01400004004000080040000C0040B7
:1014F000001000400014004000340140004C014046
:10150000005001400054014000180040001C004001
:1015100000200040004001400044014000480140DC
:101520004FF6FF7606EA05252A434DF6FF752B4058
:101530000D8906EA05352B434D8806EA05352B4310
:10154000FA4DA84202D0FA4DA84208D14BF6FF75D9
:101550002C408D894FF6FF7606EA85152C43848052
:101560008283CD88A0F84050038470BD828B4FF2F7
:10157000FF331A408283828B4FF6FF7303EA012305
:101580001A4382837047F0B50C46154600220021AD
:101590000026078C4EF6FF7C07EA0C070784828B37
:1015A000018C4FF6FF7707EA043640F6FF473A40D2
:1015B0004FF6FF7707EA05273A434FF6FF7707EA2A
:1015C00003373A43D94FB8420ED0D94FB8420BD067
:1015D000B0F1804F08D0D74FB84205D0D64FB842AF
:1015E00002D0D64FB84206D14DF6FF77394046F4C7
:1015F0008057394305E047F6FF57394044F4805798
:10160000394382830184F0BD828B4FF6F3731A4015
:101610008283828B0A4382837047F0B50C4615465D
:10162000002200210026078C4FF6FF6C07EA0C070A
:101630000784828B018C4FF6FF7707EA04264FF66A
:101640000C773A404FF6FF7707EA03172F433A43E8
:10165000B64FB8420ED0B64FB8420BD0B0F1804F63
:1016600008D0B44FB84205D0B34FB84202D0B34F00
:10167000B84206D14FF6FF57394046F480773943D8
:1016800005E04FF2FF57394044F4807739438283B5
:101690000184F0BD028B4FF2FF331A400283028BAC
:1016A0004FF6FF7303EA01231A4302837047F0B534
:1016B0000C461546002200210026078C4FF6EF7CD1
:1016C00007EA0C070784028B018C4FF6FF7707EAC5
:1016D000041640F6FF473A404FF6FF7707EA033714
:1016E0003A434FF6FF7707EA05273A438F4FB84250
:1016F0000ED08F4FB8420BD0B0F1804F08D08D4F35
:10170000B84205D08C4FB84202D08C4FB84206D1B7
:101710004FF6DF77394046F01007394305E04FF6C2
:101720005F77394044F01007394302830184F0BDEC
:10173000028B4FF6F3731A400283028B0A43028333
:101740007047F0B50C46154600220021068C4FF676
:10175000FE773E400684028B018C4FF60C763240B9
:101760007E1C06EA03162E433243704EB0420ED062
:101770006F4EB0420BD0B0F1804F08D06D4EB042EA
:1017800005D06D4EB04202D06C4EB04206D14FF63D
:10179000FD76314044F00106314305E04FF6F57621
:1017A000314044F00106314302830184F0BD70B53D
:1017B00005460C465D4885420ED05D4885420BD0FB
:1017C000B5F1804F08D05B48854205D05A48854224
:1017D00002D05A48854200D100E000BF208850B9AD
:1017E0002389A28861882846FFF7ABFFE188284655
:1017F000FFF79EFF25E0208804280AD12389A288CC
:1018000061882846FFF753FFE1882846FFF742FF2B
:1018100017E0208808280AD12389A28861882846F1
:10182000FFF7FBFEE1882846FFF7EEFE09E023897B
:10183000A28861882846FFF7A6FEE1882846FFF7C0
:1018400095FE70BD2DE9F04105460C4600260127A6
:10185000608808B9022600E00026A088012801D18E
:10186000022700E001272088A0B92389A288618887
:101870002846FFF766FFE1882846FFF759FF2389CE
:101880003A4631462846FFF712FFE1882846FFF71F
:1018900001FF13E02389A28861882846FFF707FF2C
:1018A000E1882846FFF7F6FE23893A463146284666
:1018B000FFF747FFE1882846FFF73AFFBDE8F081D0
:1018C0000A884B881A438B881A43CB881A430B89A2
:1018D0001A434B891A438B891A43A0F84420704756
:1018E0004FF6FF71818000210180C180418001722B
:1018F00070470021018041808180C1800181418148
:101900008181C18170470021018041800121818056
:101910000021C180018170470021018041808180C8
:10192000C18001814181818170470000002C01400C
:10193000003401400004004000080040000C00405A
:1019400021B1028842F00102028004E002884FF6D1
:10195000FE731A400280704731B1B0F8442042F45F
:101960000042A0F8442005E0B0F84420C2F30E0283
:10197000A0F8442070471AB183890B43838102E0A9
:1019800083898B43838170478182704741EA0203D8
:10199000A0F8483070471AB183890B43838102E075
:1019A00083898B438381704701894FF6F872114018
:1019B000018170470A46002101894FF68F73194053
:1019C00011430181704730B504460D462946204633
:1019D000FFF7F0FF208940F00700208130BD2DE99E
:1019E000F04104460D4616461F46602D06D13B4683
:1019F000012231462046FFF75AFE05E03B46012210
:101A000031462046FFF79DFE29462046FFF7D2FFCC
:101A1000208940F007002081BDE8F08130B50C46F8
:101A200000210189C9B24FF6FF7505EA0325154368
:101A300025432943018130BD2DE9F04105460E467D
:101A400017469846002443463A4631462846FFF753
:101A5000E5FF2C894FF6F870044044F007044FF678
:101A60008F70044044F070042C81BDE8F081F0B523
:101A700004460D4616461F463B463246294620463A
:101A8000FFF7CCFF208940F480402081F0BD018524
:101A9000828270470A46002101884FF68F731940F1
:101AA000114301807047F0B50C4615461E460021D3
:101AB000002200230189028B038C4FF6F87739400E
:101AC00021434FF6FC473A4040F201173A434FF6A4
:101AD000DD773B404FF6FF7707EA06172F433B437E
:101AE000018102830384F0BD0A460021018B4FF679
:101AF0008F7319401143018370470A460021018BFF
:101B000048F6FF7319404FF6FF7303EA02231943A7
:101B1000018370470A460021818B4FF68F7319406D
:101B20001143818370470A460021818B48F6FF7379
:101B300019404FF6FF7303EA02231943818370476C
:101B400021B1028842F08002028004E002884FF650
:101B50007F731A400280704721B1828842F00402EC
:101B6000828004E082884FF6FB731A4082807047BF
:101B700021B1828842F00802828004E082884FF618
:101B8000F7731A408280704721B1828842F00102C7
:101B9000828004E082884FF6FE731A40828070478C
:101BA0000A460021018B4FF6F77319401143018358
:101BB00070470A460021018B4FF2FF7319404FF620
:101BC000FF7303EA02231943018370470A46002189
:101BD000818B4FF6F77319401143818370470A4692
:101BE0000021818B4FF2FF7319404FF6FF7303EA18
:101BF00002231943818370470A460021018B4FF667
:101C0000FB7319401143018370470A460021018B81
:101C10004FF6FF3319404FF6FF7303EA02231943CF
:101C2000018370470A460021818B4FF6FB731940F0
:101C30001143818370470A460021818B4FF6FF33A1
:101C400019404FF6FF7303EA02231943818370475B
:101C50000A460021018B4FF67F731940114301831F
:101C600070470A460021018BC1F30E014FF6FF7346
:101C700003EA02231943018370470A460021818B3E
:101C80004FF67F7319401143818370470A46002144
:101C9000818BC1F30E014FF6FF7303EA0223194350
:101CA000818370470A460021018C4FF6FD7319406D
:101CB0001143018470470A460021018C4FF6F773E7
:101CC00019401143018470470A460021018C4FF6E8
:101CD000DF7319404FF6FF7303EA021319430184BF
:101CE00070470A460021018C4FF67F7319404FF66A
:101CF000FF7303EA02131943018470470A46002167
:101D0000018C4FF6FF5319404FF6FF7303EA02238D
:101D10001943018470470A460021018C4FF2FF737A
:101D200019404FF6FF7303EA0223194301847047F9
:101D30000A460021018C4DF6FF7319404FF6FF73E0
:101D400003EA023319430184704730B500230124AC
:101D50008C40A3B2048C9C430484048C02FA01F5E9
:101D6000ADB22C43048430BD30B5002304248C4034
:101D7000A3B2048C9C430484048C02FA01F5ADB236
:101D80002C43048430BD70B503460020002418465F
:101D9000183001258D40ACB21D8CA5431D8409B1BE
:101DA000082909D100EB6100056825F07005056080
:101DB0000568154305600EE00D1FC5F34E05284468
:101DC000056825F4E045056005684FF6FF7606EAEC
:101DD00002263543056070BD21B1028842F002023F
:101DE000028004E002884FF6FD731A4002807047BB
:101DF00021B1028842F00402028004E002884FF61A
:101E0000FB731A400280704721B1828842F0800241
:101E1000828004E082884FF67F731A408280704788
:101E200002884FF6F7731A40028002880A43028044
:101E3000704782884FF68F731A40828082880A43E7
:101E40008280704702894FF6F8731A400281028936
:101E50000A430281704702894FF67F731A4002815C
:101E600002890A43028170478184704781857047E7
:101E7000818670470187704781877047A0F84010BE
:101E8000704702884FF6FF431A40028002880A43D7
:101E9000028070470146888E70470146088F704760
:101EA0000146888F70470146B1F8400070470146EF
:101EB000888C70470146088D704702460020138ABF
:101EC0000B400BB1012000E000207047CA430282A2
:101ED000704730B50246002000230024158A05EA29
:101EE0000103958905EA010413B10CB1012000E05A
:101EF000002030BDCA4302827047000010B504467E
:101F0000FB48844209D101218803FFF79FF8002193
:101F10004FF48040FFF79AF832E0F648844209D146
:101F200001214804FFF79FF800214FF40030FFF72C
:101F30009AF825E0F048844209D101218804FFF78E
:101F400092F800214FF48020FFF78DF818E0EB485D
:101F5000844209D10121C804FFF785F800214FF41C
:101F60000020FFF780F80BE0E548844208D101210A
:101F70000805FFF778F800214FF48010FFF773F899
:101F800010BD2DE9F04786B005460E460024A24656
:101F900000BFA1460027B08900B100BF2F462C8AA0
:101FA0004CF6FF700440F08804432C82AC894EF656
:101FB000F3100440B0883189084371890843044311
:101FC000AC81AC8A4FF6FF400440B0890443AC8238
:101FD00001A8FEF7B4FFC648874202D1DDF810A081
:101FE00001E0DDF80CA0A88900F4004040B10AEB44
:101FF000CA0000EB0A1031684900B0FBF1F807E0B5
:102000000AEBCA0000EB0A1031688900B0FBF1F856
:102010006420B8FBF0F004012009642101FB108961
:10202000A88900F4004040B1322000EBC900B0FBA9
:10203000F1F000F00700044308E0322000EB091043
:102040006421B0FBF1F000F00F0004432C8106B0D6
:10205000BDE8F0874FF41651016000218180C180F6
:1020600001810C21418100218181704710B5024618
:102070000020108A4FF2FF0318400B884C8823433E
:102080008C882343CC8823431843108210BD002141
:10209000018041808180C180704721B1828942F4F2
:1020A0000052828104E082894DF6FF731A408281DA
:1020B0007047F0B50346002400260025002040F6B6
:1020C0006A17B94200D100BF1846C1F3421401F0AB
:1020D0001F06012707FA06F5012C01D10C3004E098
:1020E000022C01D1103000E014301AB107682F43E0
:1020F000076002E00768AF430760F0BD1AB1838A4A
:102100000B43838202E0838A8B4383827047028A77
:102110004FF6F0731A400282028A0A430282704725
:1021200082894FF2FF731A40828182890A43828139
:10213000704721B1828942F00202828104E08289E3
:102140004FF6FD731A4082817047028A4FF6DF73A3
:102150001A400282028A0A430282704721B1028A2F
:1021600042F48042028204E0028A4BF6FF731A4076
:1021700002827047C1F30802828070470146888856
:10218000C0F308007047818941F0010181817047E7
:10219000028BD2B20283028B42EA01220283704791
:1021A000028B02F47F420283028B0A430283704750
:1021B00021B1828A42F02002828204E0828A4FF6B4
:1021C000DF731A408282704721B1828A42F0100286
:1021D000828204E0828A4FF6EF731A40828270474F
:1021E00021B1828A42F00802828204E0828A4FF69C
:1021F000F7731A408282704721B1828942F400420B
:10220000828103E08289C2F30E028281704721B18C
:10221000828A42F40062828204E0828A4FF2FF7373
:102220001A4082827047828A4FF6FB731A4082827C
:10223000828A0A438282704721B1828A42F0020276
:10224000828204E0828A4FF6FD731A4082827047D0
:1022500002460020B1F5007F00D100BF13880B407B
:102260000BB1012000E00020704701F40072B2F5CC
:10227000007F00D100BFCA430280704770B502469C
:10228000002400230025002040F66A16B14200D148
:1022900000BFC1F3421501F01F03012606FA03F344
:1022A000012D02D19689334006E0022D02D1168A13
:1022B000334001E0968A33400C12012606FA04F4FA
:1022C0001688344013B10CB1012000E0002070BD2D
:1022D00010B50022002340F66A14A14200D100BFCD
:1022E0000A1201249440A3B2DC43048010BD000014
:1022F000003801400044004000480040004C0040CD
:102300000050004000F030FB00F020FC00F0A8FF7F
:1023100001F0B3F800F02EFE01F013F900F07CFD9F
:102320000120D24908709FE1D0480078012878D177
:10233000CF4800783A2810D1CD4840784628FAD1C5
:10234000CB488078572809D10021CA480078401E20
:10235000C74A1154104600F0DBFC99E0C44880786D
:10236000412809D10021C3480078401EC04A1154B9
:10237000104600F0E7FC8BE0BD488078432809D187
:102380000021BC480078401EB94A1154104600F0A4
:10239000E7FC7DE0B648807859280CD14FF47A707C
:1023A00000F092FF4FF47A7001F0A7F800F0E7FC1C
:1023B00000F017FD6CE0AE4880782B2816D1012084
:1023C000AD49087000F056FF012001F060F84FF4AD
:1023D0000041AA48FEF711FC4FF40041A848FEF75F
:1023E0000CFC0221A548FEF708FC51E0A0488078CB
:1023F0002D2817D10120A349087000F03BFF0120D0
:1024000001F045F84FF400419C48FEF7F8FB4FF40B
:1024100000419B48FEF7F3FB02219848FEF7EFFBD3
:1024200036E03AE09248807851280AD1002000F046
:1024300021FF002001F02BF802219048FEF7DDFB80
:1024400026E08B488078562813D18948C01C01F0BB
:102450001BF98D490880084601888CA001F0E4F939
:102460008948008800F030FF8748008801F045F86F
:102470000EE07F48807853280AD17D48C01C01F0C7
:1024800003F9864908600846016885A001F0CCF987
:1024900000207649087000F022FB86480078012869
:1024A00017D185A001F0C0F9864800783A280BD1F1
:1024B00084484078462807D1824880782B2803D169
:1024C00081A1844801F0A2F801F0B4F80020794914
:1024D000087081480078012875D1804800783A2832
:1024E00019D17E4840784628FAD17C4880782B283C
:1024F00012D101206049087000F0BCFE012000F0FC
:10250000C6FF4FF400415D48FEF777FB4FF40041F2
:102510005B48FEF774FBA2E0704880782D2812D14A
:1025200001205849087000F0A5FE012000F0AFFF1F
:102530004FF400415148FEF762FB4FF40041504810
:10254000FEF75BFB8BE065488078512806D10020C0
:1025500000F090FE002000F09AFF80E05F48807855
:1025600056280ED15D48C01C01F08EF846490880FF
:102570000846008800F0A8FE4348008800F0BDFF30
:102580006DE0564880783F2804D155A1564800F0A8
:1025900044FD64E051488078442815D153480288AE
:1025A00053A1574801F050F95648028856A15A489D
:1025B00001F04AF952494C4800F02FFD56494A486B
:1025C00000F02BFD4BE04FE0444880784F2812D1BB
:1025D00001202949087000F04DFE012000F057FF4E
:1025E0004FF400412548FEF708FB4FF40041244812
:1025F000FEF703FB33E039488078432812D10120ED
:102600002049087000F036FE012000F040FF4FF432
:1026100000411A48FEF7F3FA4FF400411848FEF75C
:10262000EEFA1CE02D48807856280ED12B48C01CAD
:1026300001F02AF8144908800846008800F044FE9A
:102640001148008800F059FF09E024488078532899
:1026500005D12248C01C01F017F81049086000F0AD
:102660000FFD00201C4908705EE6000034000020C9
:102670007C0100203E0000203000002000080140C6
:10268000000C0140310000202800002075536574C3
:102690005370656564203D2025640A002C000020ED
:1026A0007553746570436F756E74203D2025750AEF
:1026B00000000000360000206974206973206F6BF1
:1026C000210A0000280700206974206973206F6BBD
:1026D0000A000000004400403500002028030020CC
:1026E0003A464E32230000000048004038000020E7
:1026F00054656D70436F756E743D25640D0A00005E
:10270000B40000203C00002054656D70436F756E6E
:1027100074313D25640D0A0018010020704700BF88
:10272000FEE700BFFEE700BFFEE700BFFEE7704721
:102730007047704710B500F028FA10BD10B540F290
:1027400025516D48FFF79AFD08B36B48FFF716FD5A
:10275000C4B26A480078FF280FDA694867490978E7
:1027600044540021024665480078401C11546348D7
:102770000078401C6149087004E060480078401E01
:102780005F490C54232C02D101205E49087010BD12
:1027900010B540F225515C48FFF770FD18B35A4858
:1027A000FFF7ECFCC4B25948007840F2FF31884290
:1027B0000FDA5748554909784454002102465348D6
:1027C0000078401C115451480078401C4F49087053
:1027D00004E04E480078401E4D490C54232C02D191
:1027E00001204C49087010BD10B540F225514A48EF
:1027F000FFF744FDE0B14848FFF7C0FCC4B24748CA
:102800000078FF280FDA46484449097844540021EB
:10281000024642480078401C115440480078401C51
:102820003E49087004E03D480078401E3C490C5485
:10283000232C02D101203B49087010BD10B50121A5
:102840003948FFF746FB002844D038480078012873
:1028500005D137480068401C3549086008E0354814
:102860000078012804D132480068401E30490860D1
:102870002F4800680A280ED200202C4908702D49E4
:1028800008700A202A490860002000F0F3FC0020AC
:1028900000F0FDFD1AE028480068C82148430A30CE
:1028A00023490968884211D2002020490870214933
:1028B000087021480068C82148430A301C49086054
:1028C000002000F0D7FC002000F0E1FD01211648B7
:1028D000FFF710FB10BD10B501218807FFF7F9FACB
:1028E00040B116480088401C14490880012188071F
:1028F000FFF700FB10BD0000003801403E00002043
:102900007C0100203400002000480040A800002086
:10291000280300203500002000440040A9000020CA
:102920002807002036000020002C01403000002045
:1029300038000020310000202C0000203C00002046
:1029400008B54FF4E060FDF7FFFC25208DF800008E
:1029500000208DF8010001208DF802008DF80300A1
:102960006846FDF7F6FC08BD00B585B001210420DE
:10297000FEF752FB01218803FEF74EFB4FF4007077
:10298000ADF8100018208DF8130003208DF8120008
:1029900004A95748FEF784F84FF48060ADF81000A2
:1029A00004208DF8130004A95148FEF779F84FF47C
:1029B000E13000900020ADF80400ADF80600ADF85D
:1029C0000800ADF80C000C20ADF80A006946494833
:1029D000FFF7D7FAFFF7B4FF012240F2255145482F
:1029E000FFF767FB01214348FFF757FB05B000BD28
:1029F00070B504460D4629462046FFF7BBFB00BFD5
:102A000080212046FFF724FC0028F9D070BD2DE975
:102A1000F04107460D461646002405E0295D38467C
:102A2000FFF7E6FF601CC4B2B442F7DB00BF4021F1
:102A30003846FFF70DFC0028F9D0BDE8F08170B5ED
:102A400006460C46002500BF615D3046FFF7D0FF0B
:102A50006D1C605D0028F7D100BF40213046FFF7B4
:102A6000F7FB0028F9D070BD2DE9F04105460C4672
:102A7000260AE7B231462846FFF77CFB00BF8021DB
:102A80002846FFF7E5FB0028F9D039462846FFF72E
:102A900071FB00BF80212846FFF7DAFB0028F9D040
:102AA000BDE8F08170B504460D46E1B21148FFF76C
:102AB00061FB00BF80210F48FFF7CAFB0028F9D057
:102AC000204670BD10B5044600BF20210948FFF71D
:102AD000BFFB0028F9D00748FFF750FB10BD0020CE
:102AE000054908700549044A127888547047000067
:102AF00000080140003801403E0000207C01002019
:102B000030B50146B1F1807F01D3012030BD21F005
:102B10007F40401E4FF0E022506150170F220028E6
:102B200007DA13071D0E3E4B00F00F04241F1D553E
:102B300003E013071C0E3B4B1C5400BF00204FF05A
:102B4000E0229061072010610020DFE710B53648D1
:102B500000683649B0FBF1F42046FFF7D1FF08B119
:102B600000BFFEE710BD01B53149009808604FF085
:102B7000E020006940F001004FF0E021086100BF53
:102B80002B4800680028FBD108BD2948006820B107
:102B900027480068401E26490860704731B5224822
:102BA00000682249B0FBF1F52846FFF7A9FF002491
:102BB00008E000BF4FF0E020006900F480300028FA
:102BC000F8D0641C00988442F3D34FF0E0200069F1
:102BD00020F001004FF0E021086138BD31B5124806
:102BE00000684FF47A71B0FBF1F52846FFF788FFD3
:102BF000002408E000BF4FF0E020006900F48030BE
:102C00000028F8D0641C00988442F3D34FF0E020F1
:102C1000006920F001004FF0E021086138BD00009C
:102C200018ED00E000E400E00000002040420F004A
:102C30004000002010B502461E4B002005E01C6835
:102C400042F820401B1D441CE0B28842F7DB10BD57
:102C5000F8B505460E46174F04200090FDF701FC1D
:102C60003520FDF799FE3846FDF740FC00909DF8B1
:102C70000000042813D1002408E055F82410384639
:102C8000FDF704FD00903F1D601CC4B2B44203DA9E
:102C90009DF800000428F0D0FDF7EFFB01E00020D4
:102CA000F8BD9DF80000042801D10120F8E70020BC
:102CB000F6E7000000FC000810B504460BE02178A0
:102CC000684800F09BF921786748FFF791FE0520DE
:102CD000FFF749FF641C20780028F0D10520FFF79A
:102CE00042FF0D215F4800F089F90D215E48FFF792
:102CF0007FFE0520FFF737FF0A215A4800F07EF9D2
:102D00000A215948FFF774FE5848FFF72CFF10BD01
:102D100038B50446E41C56A0234657A257A100909C
:102D20005A4800F091FD594A59A15D4800F08CFDC8
:102D300056495CA000F078FD1E2159482038FFF765
:102D400087FF38BD10B50446E41C224659A15448FB
:102D5000203800F079FD214658A000F065FD10BD37
:102D600010B50446E41C224652A14D48103800F02C
:102D70006BFD4B49103958A000F056FD10BD10B541
:102D80001E2147482038FFF755FF454B103BA3F164
:102D9000100256A15A4800F057FD10BD70B5054607
:102DA00000240BE000F06CF92846FFF785FF55A1E1
:102DB000554800F057FC00B102E0641C032CF1DB25
:102DC00000BF70BD10B54FF480715048FDF717FF7C
:102DD0004F48FFF7C8FE4FF480714C48FDF70DFFD8
:102DE00010BD10B5FFF7EEFF4AA0FFF7D7FF4AA0CE
:102DF000FFF7D4FF4AA0FFF7D1FF4148FFF7CEFF0E
:102E00002748FFF7CBFF4AA0FFF7C8FF4CA0FFF70A
:102E1000C5FF00F035F910BD08B501210820FEF707
:102E2000FBF84FF40070ADF8000010208DF803009F
:102E300003208DF8020069463448FDF731FE4FF457
:102E40008070ADF8000069463048FDF729FE4FF468
:102E500000712E48FDF7D1FE4FF480712B48FDF72D
:102E6000CCFE08BD004800400038014080841E00B0
:102E700038303830000000005443500022257322BF
:102E80002C222573222C257300000000F402002060
:102E900041542B43495053544152543D2573000033
:102EA0009C0200206970202573206973206F6B21BC
:102EB0000A000000222573220000000073657420C0
:102EC00077696669206E616D6520257320697320BE
:102ED0006F6B210A0000000073657420636F6465E6
:102EE000202573206973206F6B210A0041542B4306
:102EF000574A41505F4445463D25732C25730000D9
:102F0000440000204F4B000028030020000C01402B
:102F100020A107004154000041542B52535400009B
:102F200041542B43574D4F44455F4445463D310086
:102F300041542B4349504D4F44453D310000000062
:102F400041542B43495053454E44000008B54FF4BB
:102F5000A060FDF7F9F927208DF8000000208DF81A
:102F6000010001208DF802008DF803006846FDF78E
:102F7000F0F908BD00B585B001210820FEF74CF836
:102F800001218804FEF755F84FF48060ADF8100079
:102F900018208DF8130003208DF8120004A93C4876
:102FA000FDF77EFD4FF40060ADF8100004208DF8B1
:102FB000130004A93648FDF773FD4FF4E13000908B
:102FC0000020ADF80400ADF80600ADF80800ADF83B
:102FD0000C000C20ADF80A0069462E48FEF7D1FF20
:102FE000FFF7B4FF012240F225512A48FFF761F8AC
:102FF00001212848FFF751F805B000BD70B504461F
:103000000D4629462046FFF7B5F800BF802120462F
:10301000FFF71EF90028F9D070BD70B506460C46C2
:10302000002500BF615D3046FFF7E8FF6D1C605D65
:103030000028F7D100BF40213046FFF709F90028EA
:10304000F9D070BD2DE9F04105460C46260AE7B2DD
:1030500031462846FFF78EF800BF80212846FFF74B
:10306000F7F80028F9D039462846FFF783F800BF63
:1030700080212846FFF7ECF80028F9D0BDE8F08160
:103080000020054908700549034A127888547047A2
:10309000000C014000480040A80000202803002048
:1030A00008B501210420FDF7B7FF4FF48070ADF89B
:1030B000000018208DF8030003208DF802006946F7
:1030C0008748FDF7EDFC08BD08B501210846FDF76E
:1030D000A3FF01218348FDF7B4FD01210420FDF782
:1030E0009BFF01210420FDF797FF01210420FDF73C
:1030F00093FF4FF40060ADF8000010208DF803003E
:1031000003208DF8020069467548FDF7C9FC4FF4AD
:103110008050ADF8000069467148FDF7C1FC4FF4DE
:103120000050ADF8000069466D48FDF7B9FC4FF45A
:103130008040ADF8000069466948FDF7B1FC022007
:10314000ADF8000069466648FDF7AAFC4FF4004060
:10315000ADF8000069466248FDF7A2FC4FF400613B
:103160005F48FDF74AFD4FF480515D48FDF747FD8C
:103170004FF400515A48FDF742FD4FF48041584842
:10318000FDF73DFD4FF400415548FDF736FD0221A6
:103190005348FDF734FD08BD08B54FF4C060FDF796
:1031A000D3F819208DF8000000208DF801000220CE
:1031B0008DF8020001208DF803006846FDF7C9F87C
:1031C00008BD00B587B00121C802FDF725FF42F216
:1031D0000F70ADF8140041F61F40ADF8100000204C
:1031E000ADF81600ADF812008DF8180004A93E489D
:1031F000FEF74AF87020ADF800000120ADF802009B
:103200000020ADF8040041F28730ADF8060002203E
:10321000ADF808000020ADF80C0069463248FEF712
:1032200070F808213048FEF7BBFC01212E48FEF75C
:1032300087FC01212C48FEF7DBFD01212A48FEF71F
:1032400045FE012211462848FEF795FB002126483D
:10325000FEF776FB00212448FEF77EFB07B000BD99
:1032600010B5FFF731FFFFF71BFFFFF795FFFFF7E3
:10327000A8FF10BD10B504466CB900211A48FEF72E
:103280005FFB00211848FEF767FB4FF4006114480C
:10329000FDF7B3FC0CE001211348FEF751FB0121BF
:1032A0001148FEF759FB4FF400610D48FDF7A7FCEC
:1032B00010BD10B5044621460B48FEF7D7FD61103E
:1032C0000948FEF7D5FD10BD70B5044642F21070F6
:1032D00090FBF4F085B22846FFF7EBFF70BD0000CD
:1032E0000008014000043000002C014008B5012115
:1032F0001820FDF791FE01210820FDF78DFE4FF407
:103300000050ADF8000010208DF8030003208DF868
:10331000020069467E48FDF7C3FB4FF48050ADF8CC
:10332000000069467B48FDF7BBFB4FF40050ADF849
:10333000000069467748FDF7B3FB4FF48040ADF8D5
:10334000000069467348FDF7ABFB4FF40040ADF851
:10335000000069466F48FDF7A3FB4FF400516C482D
:10336000FDF74BFC4FF480516A48FDF748FC4FF4E1
:1033700000516848FDF743FC4FF480416548FDF774
:103380003EFC4FF400416348FDF737FC08BD08B52B
:1033900001210420FDF740FE0120ADF800001820B7
:1033A0008DF8030003208DF8020069465A48FDF7A6
:1033B00077FB08BD08B54FF4A060FCF7C5FF1C20E3
:1033C0008DF8000001208DF8010000208DF802002A
:1033D00001208DF803006846FCF7BBFF08BD00B56F
:1033E00087B001210846FDF724FE42F20F70ADF8C8
:1033F000140041F61F40ADF810000020ADF8160093
:10340000ADF8120004A94FF08040FDF73DFF702099
:10341000ADF800000120ADF8020041F28730ADF8B0
:1034200006000220ADF808000020ADF80C00694647
:103430004FF08040FDF765FF0821C806FEF7B0FB9E
:1034400001218807FEF77CFB01218807FEF7D0FCED
:1034500001218807FEF73AFD012211469007FEF789
:103460008AFA00214FF08040FEF76AFA00214FF0FF
:103470008040FEF771FA07B000BD10B5FFF736FFC8
:10348000FFF785FFFFF7ABFFFFF794FF10BD10B507
:1034900004467CB900214FF08040FEF751FA00212C
:1034A0004FF08040FEF758FA4FF400511848FDF7EE
:1034B000A4FB0CE001218807FEF742FA01218807EE
:1034C000FEF74AFA4FF400511148FDF798FB10BD82
:1034D00010B5044621464FF08040FEF7C9FC10BDF0
:1034E00010B5044621464FF08040FEF7BFFC611046
:1034F0004FF08040FEF7BCFC10BD70B5044642F2B0
:10350000107090FBF4F085B22846FFF7E9FF70BD1C
:1035100000100140000C01400008014008B54FF4C4
:10352000A060FCF711FF26208DF8000001208DF827
:1035300001008DF802008DF803006846FCF709FFD2
:1035400008BD00B585B001214804FDF772FD0121D9
:103550000420FDF761FD0420ADF8100018208DF85F
:10356000130003208DF8120004A93A48FDF798FAD9
:103570000820ADF8100004208DF8130004A9354888
:10358000FDF78EFA4FF4E13000900020ADF8040012
:10359000ADF80600ADF80800ADF80C000C20ADF851
:1035A0000A0069462C48FEF7ECFCFFF7B7FF012242
:1035B00040F225512848FEF77CFD01212648FEF700
:1035C0006CFD40212448FEF750FE05B000BD70B5EB
:1035D00004460D4629462046FEF7CCFD00BF80215B
:1035E0002046FEF735FE0028F9D070BD2DE9F041E8
:1035F00007460D461646002400BF295D3846FFF7F2
:10360000E6FF641CB442F8D3BDE8F08170B506460D
:103610000C46002500BF615D3046FFF7D8FF6D1CEA
:10362000605D0028F7D170BD01460C480078088025
:103630000B48704740F201100021084A117005E064
:103640000022411E89B20846054B5A540028F7D182
:10365000704700000008014000440040A90000201D
:103660002807002030B505462A460B4612F8010B04
:1036700013F8014B08B1A042F8D01CB1002802D0C9
:103680006D1CF1E7284630BD70B5064600F0F0F835
:10369000046805460A220021304600F018F82C6024
:1036A00070BD30B50B46014600202022012409E000
:1036B00021FA02F59D4205D303FA02F5491B04FAEB
:1036C00002F52844151EA2F10102F1DC30BD2DE9FE
:1036D000F04791460F4680460446002614F8015BE9
:1036E0002DB100F03FF80068405DC007F6D12B2DEA
:1036F00002D02D2D18D0641E4A463946204600F0CF
:1037000035F827B13968A14201D1C7F800807105A9
:103710004FF002040BD54042002803DD00F0A8F86A
:103720000460A007BDE8F08746F48066E4E700285F
:10373000F8DA00F09DF804606FF00040F2E7000056
:10374000064C074D06E0E06840F0010394E80700EE
:1037500098471034AC42F6D3FCF7EEFCE03A000890
:10376000003B000800487047DC3A00082DE9F05F94
:1037700082460078002715468B460AF10104B946B7
:10378000302801D09DB113E014F8010B01277828EF
:1037900003D0582801D045B10AE00DB1102D07D152
:1037A0000027102514F8010B02E0082500E00A2587
:1037B0000026B0460EE005FB080005FB06F10127D8
:1037C00001EB10461FFA80F8B6F5803F00D3B946EA
:1037D00014F8010B294600F018F80028EBDABBF1C9
:1037E000000F05D00FB1641E00E05446CBF8004036
:1037F000B9F1000F06D000F03BF802210160C81EAD
:10380000BDE8F09F48EA0640FAE73A2800D230388F
:1038100020F02002412A01D3A2F13700884201D3CF
:103820004FF0FF30704700000FB4054B10B503A9EF
:10383000044A029800F030F810BC5DF814FB000058
:10384000A52A0008AC0000200FB4084B10B504A94D
:1038500002AA039800F020F8044602A9002000F014
:10386000F7F8204610BC5DF814FB0000513A000840
:1038700000487047B000002002E008C8121F08C1CD
:10388000002AFAD170477047002001E001C1121FE1
:10389000002AFBD1704700002DE9FF4F8BB09A46FC
:1038A0000F460546002606E025280BD052460D9906
:1038B00090476D1C761C28780028F5D10FB0304653
:1038C000BDE8F08F0024A0460122604900E00443D7
:1038D00015F8013F203B02FA03F00842F7D128789F
:1038E0002E2817D115F8010F44F004042A280ED011
:1038F0006FF02F022878A0F1300109290AD808EBCF
:10390000880102EB410100EB01086D1CF2E757F85A
:10391000048B6D1C287869283ED006DC0028CDD0A9
:1039200063280BD0642804D136E0732810D07528A2
:103930004BD052460D999047761C85E017F8040B42
:103940008DF8000000208DF80100E946012003E019
:1039500057F8049B4FF0FF3061074FF0000401D48B
:103960000AE0641C44450DDA8442FADB19F80410BD
:103970000029F6D106E0641C8442FCDB19F804102F
:103980000029F8D1264404E019F8010B52460D999C
:103990009047641EF8D257E001CF4FF00A0B002881
:1039A00002DA40422D2102E0210504D52B218DF8B9
:1039B0002410012103E0E10705D02021F7E70DF1F4
:1039C000200908910CE00021F9E701CF4FF00A0B24
:1039D000F9E75946FFF765FE01F1300209F8012DBC
:1039E0000028F6D1ADEB090000F1200B600701D4EF
:1039F0004FF00108D84502DDA8EB0B0000E00020E5
:103A00008046002406E009A85246005D0D999047C3
:103A1000641C761C08988442F5DB04E03020524692
:103A20000D999047761CB8F10001A8F10108F5DC6A
:103A300005E019F8010B52460D999047761CBBF131
:103A40000001ABF1010BF4DC6D1C34E70928010027
:103A50000A68531C0B6010707047004040404040A3
:103A60004040404041414141414040404040404051
:103A70004040404040404040404040050202020279
:103A80000202020202020202020202202020202080
:103A90002020202020020202020202029090909038
:103AA0009090101010101010101010101010101016
:103AB000101010101010020202020202888888887A
:103AC0008888080808080808080808080808080876
:103AD0000808080808080202020240005B3A0008D1
:103AE000003B000800000020B40000007838000807
:103AF000B43B0008B4000020740B000088380008B4
:103B000000A24A04000000000000000001020304BB
:103B10000607080900000000010203040102030473
:103B20000607080902040608000000000100000062
:103B300000000000000000000A0000000A00000071
:103B40000000000041542B43574A41505F44454612
:103B50003D22796E616F222C22796E616F3234368C
:103B6000313335220000000000000000000000009A
:103B70000000000000000000000000000000000045
:103B80000000000000000000000000000000000035
:103B90000000000000000000000000000000000025
:103BA0000000000000000000000000000000000015
:043BB0000000000011
:0400000508000131BD
:00000001FF
